:100000000C94B1010C94D0010C94D0010C94D0014B
:100010000C94D0010C94D0010C94D0010C94D0011C
:100020000C94D0010C94A5180C94D0010C94D00120
:100030000C94D0010C94D0010C94D0010C94D001FC
:100040000C9469070C944B070C9455070C945F07AC
:100050000C9428070C94D0010C94D0010C94D0017E
:100060000C94D0010C9432040C94D0010C94F20541
:100070000C94D0010C94D0010C94D0010C94D001BC
:100080000C94D0010C94D0010C94D0010C94D001AC
:100090000C940B070C94D0010C941D070C94D00108
:1000A0000C94D0010C94D0010C94D0010C94D0018C
:1000B0000C94D0010C94D0010C94D0010C94D0017C
:1000C0000C94D0010C94D0010C94D0010C94D0016C
:1000D0000C94D0010C94D0010C94D0010C94D0015C
:1000E0000C94D0010C94C0170C94D0010C94EE1712
:1000F0000C9408170C9436170C94D0010C946417C8
:100100000C9492170C94290F0C94D5160C94650F2F
:100110000C94180F0C94D0010C94D0010C94D001C5
:100120003328362839283C283F28432846284928A0
:100130004C284F285228552858285B288028832887
:1001400088282A2C2D2C2528562C592C432D052E59
:10015000082E0B2E0E2E2B28292E612E000021108A
:10016000422063308440A550C660E7700881299121
:100170004AA16BB18CC1ADD1CEE1EFF131121002C9
:1001800073325222B5529442F772D6623993188371
:100190007BB35AA3BDD39CC3FFF3DEE36224433495
:1001A00020040114E664C774A44485546AA54BB5C1
:1001B00028850995EEE5CFF5ACC58DD55336722669
:1001C00011163006D776F6669556B4465BB77AA711
:1001D00019973887DFF7FEE79DD7BCC7C448E558B5
:1001E0008668A7784008611802282338CCC9EDD961
:1001F0008EE9AFF9488969990AA92BB9F55AD44A09
:10020000B77A966A711A500A333A122AFDDBDCCBB0
:10021000BFFB9EEB799B588B3BBB1AABA66C877CD4
:10022000E44CC55C222C033C600C411CAEED8FFD00
:10023000ECCDCDDD2AAD0BBD688D499D977EB66EA8
:10024000D55EF44E133E322E511E700E9FFFBEEF50
:10025000DDDFFCCF1BBF3AAF599F788F8891A98112
:10026000CAB1EBA10CD12DC14EF16FE18010A100FC
:10027000C230E3200450254046706760B9839893EC
:10028000FBA3DAB33DC31CD37FE35EF3B10290124C
:10029000F322D2323542145277625672EAB5CBA5B8
:1002A000A89589856EF54FE52CD50DC5E234C3249C
:1002B000A01481046674476424540544DBA7FAB78C
:1002C0009987B8975FE77EF71DC73CD7D326F236EC
:1002D0009106B01657667676154634564CD96DC9D8
:1002E0000EF92FE9C899E9898AB9ABA9445865483C
:1002F00006782768C018E1088238A3287DCB5CDB2C
:100300003FEB1EFBF98BD89BBBAB9ABB754A545A8B
:10031000376A167AF10AD01AB32A923A2EFD0FEDF7
:100320006CDD4DCDAABD8BADE89DC98D267C076CDB
:10033000645C454CA23C832CE01CC10C1FEF3EFFCB
:100340005DCF7CDF9BAFBABFD98FF89F176E367E2B
:10035000554E745E932EB23ED10EF01E00020E0674
:100360000C0411241FBECFEFD1E4DEBFCDBF12E0DD
:10037000A0E0B2E0EEE3F9E600E00BBF02C00790B8
:100380000D92A831B107D9F71BE1A8E1B2E001C095
:100390001D92A630B107E1F70E949D2E0C949E3469
:1003A0000C9400008FB7F894992708958FBF089593
:1003B000282F9FB7F894E82FFF27E95FFC4F808133
:1003C0008F3F81F4E091681AE21771F40BC020931B
:1003D0003C1304C0FF27E95FFC4F20832093681A79
:1003E00020E007C025E005C080913C138F3F91F7C6
:1003F000EECF892F99278FBF822F9927089582E109
:100400000E94D801992708958BE10E94D80199276D
:10041000089521E030E002C0220F331F8A95E2F7F1
:100420008091CC04822B8093CC04EBE6F0E08081B9
:10043000282B2083E8E6F0E080818160808380E0E3
:1004400090E0089521E030E002C0220F331F8A952A
:10045000E2F7922F90958091CC0489238093CC046D
:10046000EBE6F0E08081282B2083E8E6F0E0808155
:100470008160808380E090E00895ECE5F1E06927F9
:10048000660FF11DE60FF11DC895982F802D31964E
:10049000C89590250895982F80912402882389F586
:1004A000992379F531E03093240280910202809300
:1004B000250220911902822F81708093010380917F
:1004C0000702909108029093270280932602809160
:1004D0001A028093280232273170267EE32FFF27ED
:1004E000EE0FFF1FED5FFD4F808191819093080219
:1004F00080930702232B2093190287E00E94D801E2
:1005000008958091190280FF02C08B7F01C08D7F0A
:100510008093190208951F931FB7F8948091CD140A
:10052000882341F482E00E94D801882319F481E0F5
:100530008093CD14812F99278FBF1F9108959FB766
:10054000F89480918D0C8A3011F020E006C020E0F4
:1005500080912604843009F421E0892F99278FBFE8
:10056000222349F084E00E94D8018FB7F89499279C
:100570001092180206C08FB7F894992721E02093B3
:1005800018028FBF08950F931F93082F162F809185
:1005900026048130D9F0813038F0823009F44AC025
:1005A000833009F028C159C0002309F458C11092C2
:1005B0001813109217131092970C10923213109276
:1005C000A1041092800510927F0539C1002309F023
:1005D00046C180917F05909180050E943D029093D5
:1005E000800580937F0582E0809326041093321368
:1005F000143409F000C125C18695869503C0809109
:1006000019028695817009F0F6C08091190299232C
:1006100011F0846001C082608093190280911902F8
:10062000877E88608093190210921A028FEF809360
:10063000020215C1002309F0DEC06093A10480917D
:100640007F05909180050E943D02909380058093E4
:100650007F0583E08093260402C18091970C8F3F31
:1006600009F4C9C0002309F461C0823008F4C3C092
:10067000E0911713EE2309F4EBC04E2F4150E42F05
:10068000FF27E95EFC4E82819927382F22274423D9
:1006900011F4E2E002C0E42FE150FF27E95EFC4ED6
:1006A00082819927282B392B80917F059091800595
:1006B0002817390709F09FC080E00E944B02309153
:1006C000A10480916C0520916D05982F9F5F963055
:1006D00008F090E0921771F0E82FFF27E459FA4FE5
:1006E00032838F5F80936C05863010F010926C051A
:1006F0000E948B02109218131092171394E090939B
:1007000026041092970C109232131092A1041092AA
:10071000800510927F05809129028D7F80932902A8
:1007200080911802882309F49AC084C0823008F4AA
:100730004EC0E0911813FF27E95EFC4E8281482FDE
:100740005527342F20911902822F869586958695FC
:10075000837099278130910519F00297F9F40EC042
:10076000277E206120931902442311F485E001C003
:1007700080E080931A023093020210C080911A0226
:10078000873760F4E0910702F0910802E80FF11D4D
:10079000408380911A028F5F80931A028091181310
:1007A000E82FFF27E95EFC4E62818F5F809318136C
:1007B000833010F010921813772780917F05909165
:1007C00080050E943D029093800580937F05809173
:1007D0001713E82FFF27E95EFC4E12838F5F80938B
:1007E0001713833010F0109217138091970C8F5FBE
:1007F0008093970C34C0109218131092171314E0C2
:10080000109326041092970C109232131092A104A8
:100810001092800510927F05809129028D7F809330
:10082000290281E00E944B0280911802882329F05E
:10083000109326040E949F0212C0002381F081E0E1
:1008400009CF80911902982F917080FDD5CED7CE17
:1008500080911B139927382F222742E01CCF1F912C
:100860000F9108951F920F920FB60F9211242F939C
:100870003F934F935F936F937F938F939F93AF9328
:10088000BF93EF93FF938091C00087FF42C06091B8
:10089000C600E0918105F0918205309719F18091B1
:1008A000CB149091CC14E80FF91F608301969093BC
:1008B000CC148093CB142091861A3091871A82171A
:1008C000930738F1109282051092810580915C0C9B
:1008D0008330F9F08091C1008F778093C10010922E
:1008E0005C0C17C06E3719F460E081E010C0809195
:1008F00029026D3721F48260809329020AC081FFAA
:1009000005C08D7F8093290280E2682780E00E94E5
:10091000C302FF91EF91BF91AF919F918F917F9112
:100920006F915F914F913F912F910F900FBE0F905C
:100930001F9018952FB7F89433278093C600E0ECEA
:10094000F0E08081806480832FBF0895FC016115F1
:10095000710519F481E090E008958091C5049091AB
:10096000C604892B19F085E090E008957093251353
:1009700060932413F093C604E093C50410929F047F
:1009800010929E0481E08093A0048091C000806456
:100990008093C0008091C10080648093C1008081F9
:1009A00021E030E030939F0420939E040E949A043B
:1009B00080E090E00895982F8D57823068F4809100
:1009C000290281608093290280E289278093920C1A
:1009D0008DE78093390302C09093390361E070E0A2
:1009E00089E393E00E94A604992708958FB7F894AD
:1009F0009927209129022E7F209329022EE7209308
:100A000039038FBF61E070E089E393E00E94A604A0
:100A1000992708951F93CF93DF938FB7F89410927F
:100A2000CD1420918D0C40E0283009F441E030E0F5
:100A3000293009F431E0442311F4332351F01092AA
:100A40008D0CE091F305FF27EE0FFF1FE853FB4FDE
:100A5000108299278FBF442311F4332331F19FB7BC
:100A6000F894809144138F5F809344138091BE0467
:100A7000833479F420916D0580916C05821779F0AB
:100A8000822F8F5F80936D05863048F010926D0540
:100A900006C0A0E0442309F4A1E071E002C0A0E098
:100AA00070E0892F99278FBF06C0222311F010E034
:100AB0006CC0A0E070E08FB7F894992720911802DD
:100AC0008FBF222341F08FB7F89499272AE0209313
:100AD0008D0C8FBF42C08FB7F89499276091C804DE
:100AE0004091CA048FBF8FB7F894282F332750E066
:100AF00090916C0580916D05981709F451E02FBF16
:100B0000552341F5662331F55FB7F89482E0809371
:100B1000C8048FB7F894282F332740E090916C05D4
:100B200080916D05981709F441E02FBF442311F01F
:100B300080E006C0E0916D05FF27E459FA4F8281FD
:100B40008093C90483E48093BE041092F305852F3B
:100B500099270EC04150423010F010E00BC08FB703
:100B6000F894992725E42093BE0421E02093F3050F
:100B70008FBF11E0772349F08FB7F8949927A0939E
:100B800021028FBF86E00E94D8018FB7F894C82F4A
:100B9000DD2780918D0C8A3021F40E949F02CFBF07
:100BA0001DC0CFBF1123D1F02FB7F8943327109277
:100BB000841A1092831A1092B60481E080938D0CEF
:100BC0002FBF0E94F604882349F08FB7F894992725
:100BD00029E020938D0C8FBF0E948B02DF91CF9173
:100BE0001F91089578941F920F920FB60F921124BF
:100BF000FF920F931F932F933F934F935F936F93A6
:100C00007F938F939F93AF93BF93CF93DF93EF9394
:100C1000FF9320919E0430919F0480912413909122
:100C200025132817390780F4E091C504F091C60414
:100C3000E20FF31F80812F5F3F4F30939F0420937B
:100C40009E040E949A04D1C01092C6041092C5045A
:100C50001092A0048091C1008F7B8093C100FFB6E9
:100C6000F8948091290280FF0EC08E7F8093290224
:100C70008091920C8093390361E070E089E393E006
:100C80000E94A604AFC080918D0C843009F48CC002
:100C9000853040F4823021F18330B8F5813009F09D
:100CA0009CC00DC0863009F48DC0863008F483C026
:100CB000873009F48EC0883009F08FC091C08091D0
:100CC000BE040E94DB04082F83E080938D0C6091AA
:100CD000BE048091831A9091841A0E943D0210C034
:100CE000809144130E94DB04082F83E080938D0CD5
:100CF000609144138091831A9091841A0E943D025E
:100D00009093841A8093831A66C0E091F305FF27BD
:100D1000EE0FFF1FE753FB4F80810E94DB04082F7B
:100D20001091F305C12FDD27FE01EE0FFF1FE753E2
:100D3000FB4F60818091831A9091841A0E943D023A
:100D40009093841A8093831A2091B6042F5F209386
:100D5000B604113039F580912002E0911B02F09128
:100D60001C02E80FF11DE0818F5F809320029091BB
:100D70001F02981730F482E08093CA0440E050E0EC
:100D800002C04E2F5527DE01AA0FBB1FFD01E853FD
:100D9000FB4F8081823031F02F3F21F0A753BB4FB2
:100DA0004C9319C084E012C08091831A0E94DB0426
:100DB000082F85E00BC08091841A0E94DB04082F65
:100DC00086E004C00E94F604082F87E080938D0C13
:100DD00002C088E003C0002329F089E080938D0CD5
:100DE0000E948B028F2D99278FBFFF91EF91DF918A
:100DF000CF91BF91AF919F918F917F916F915F91B3
:100E00004F913F912F911F910F91FF900F900FBE27
:100E10000F901F9018951F920F920FB60F921124EA
:100E20008F938091C80087FF02C08091CE008F9180
:100E30000F900FBE0F901F90189578941F920F92ED
:100E40000FB60F9211240F900FBE0F901F901895A0
:100E50001F920F920FB60F9211248F939F93809140
:100E60005E138F5F80935E138091B3049091B404FE
:100E700001969093B4048093B304892B29F4809154
:100E80007E058F5F80937E059F918F910F900FBE9F
:100E90000F901F9018951F920F920FB60F9211246A
:100EA0000F900FBE0F901F9018951F920F920FB6C4
:100EB0000F9211240F900FBE0F901F9018951F9244
:100EC0000F920FB60F9211240F900FBE0F901F902C
:100ED00018951F920F920FB60F9211240F900FBE0C
:100EE0000F901F901895582F80911D0290911E020F
:100EF000892B19F085E090E008952FB7F8945523D9
:100F000009F446C0109220021092210270931C0234
:100F100060931B0282E090E090931E0280931D027A
:100F20005093230210922202523709F040E080E0F1
:100F3000840F80931F02822F99278FBF8FB7F89459
:100F4000282F332780918D0C8A3011F42FBF19C0C0
:100F50002FBF9FB7F8948091CA04882311F020E036
:100F600006C081E08093CA045093CB0421E0892F0E
:100F700099278FBF222329F00E948B0280E090E006
:100F8000089510921E0210921D0281E090E00895D3
:100F900085E0809320021092210270931C026093DE
:100FA0001B0282E090E090931E0280931D0210923B
:100FB00023021092220285E0495FBACFE091FC0241
:100FC000F091FD028AE5808382E4818380E582835B
:100FD0006091FC027091FD0243E082E70E9473077A
:100FE000882319F088E00E94D8010895CF93DF93F9
:100FF000382FDA01253618F082E090E00FC0FA01B0
:1010000035966183872F9927EA018D833683248360
:10101000422FBD0180E00E9473079927DF91CF9195
:101020000895CF93DF93582FDB01823018F081E0D1
:1010300090E038C0C82FDD27CC0FDD1FC95CDC4E27
:1010400088819981892B19F085E090E02BC0798304
:1010500068839B012B5F3F4FF90144838091160207
:10106000823018F480E090E01DC0F9018681FB0118
:1010700065817727762F6627F90121813327622B37
:10108000732B50931602242FAD010E94F607992767
:10109000282F882329F082E0809316021982188273
:1010A000822F9927DF91CF91089580913703992757
:1010B000982F8827209138033327822B932B019672
:1010C00080933803892F99278093370340915902E1
:1010D0008FEF80937B1980937A1983E68093801930
:1010E00065E779E180E00E941108882319F481E026
:1010F00080932C028FB7F89499272EB138E02327DC
:101100002EB98FBF08958FEF80935C0380935B03AC
:1011100089E8809361034CE066E573E081E00E941A
:101120001108882319F481E08093490208956536F7
:1011300018F080E090E008950C960895685F0E9492
:101140009708009709F00896089568E00E949708AC
:10115000089562E00E9497080895AC01209137023B
:101160002F3018F081E090E0089580913602E82F4A
:10117000FF27EE0FFF1FEE50FD4E518340838F5F20
:10118000809336028F3011F4109236022F5F209335
:10119000370280E090E008950B960895FC0182816B
:1011A0009927982F882721813327822B932B75E04D
:1011B000969587957A95E1F78170907008954FB76D
:1011C000F89455272091E100622F2091E200722FC0
:1011D0002091E300822F2091E400922F4FBF0895C9
:1011E000EF92FF920F931F93CF93DF937B018C01BC
:1011F0008FB7F894C82FDD270E94DF089B01AC0150
:10120000C801B701623071058105910520F462E0E3
:1012100070E080E090E0260F371F481F591FDA0169
:10122000C901B093F400A093F3009093F2002093CF
:10123000F10082E08093E0008091DF008260809383
:10124000DF008FEF80930902CFBFDF91CF911F9115
:101250000F91FF90EF90089580935F13882311F40E
:1012600084E001C081E0809324048FE00E94D801D3
:101270000895FB01EC58FF4F21E030E002C0220F3F
:10128000331F8A95E2F72095808182238083089519
:10129000CF93DF93EC010E94CE08882339F18A8135
:1012A00029819927982F88273327822B932B87749E
:1012B0009C7C81549848D1F48F814E812FB7F8944B
:1012C000332760910A0270910B022FBF20E099270B
:1012D000982F88275527842B952B8617970709F079
:1012E00021E081E02827822F992702C080E090E04A
:1012F000DF91CF910895FB01EC58FF4F21E030E0E2
:1013000002C0220F331F8A95E2F78081822399273A
:101310000895EF92FF920F931F937C018FB7F8947B
:1013200099270091900C1091910C0F5E1E4F109315
:10133000910C0093900C015111408FBF81E10E94EC
:10134000D801C801B7010E940E3444961F910F9135
:10135000FF90EF900895EF920F931F93AE2D99E0B9
:10136000899FF0011124EC50FA4F4083518362832E
:1013700073830483158326833783A17080858E7FD2
:101380008A2B826080878AE00E94D8011F910F918A
:10139000EF9008950F931F930FB7F8941091B7042F
:1013A0000E94DF089B01AC018091E00083FF05C033
:1013B0001F5F0E94DF089B01AC01802F99278FBF20
:1013C000612F772788279927FAE1660F771F881FF3
:1013D000991FFA95D1F7E6E05695479537952795E9
:1013E000EA95D1F7622B732B842B952B1F910F91CC
:1013F000089520914F03222319F440E050E016C0D5
:101400008091851AE82FFF27EE0FFF1FEF52FD4F47
:101410004081518111821082215020934F038F5FB0
:101420008093851A8A3011F41092851ACA010895A2
:10143000AC0120914C022A3018F081E090E0089530
:1014400080914B02E82FFF27EE0FFF1FE552FB4F65
:10145000518340838F5F80934B028A3011F4109246
:101460004B022F5F20934C0280E090E00895AC0186
:1014700020914F032A3018F081E090E00895809188
:10148000851A682F620F712D711DFB016A3071057D
:1014900008F03A97EE0FFF1FEF52FD4F5183408344
:1014A0002F5F20934F0380E090E00895AC012091DE
:1014B00055032A3018F081E090E008958091FF02F2
:1014C000682F620F712D711DFB016A30710508F0E4
:1014D0003A97EE0FFF1FEB5BFC4E518340832F5F6B
:1014E0002093550380E090E00895AC01E4E8F5E036
:1014F00080E090E09C01858180FF05C08081918122
:101500008417950741F0C90101963B968A309105F1
:1015100089F72FEF30E0C90108950E94750A8F3FC7
:1015200091F099272BE030E0829FF001839FF00D2E
:10153000929FF00D1124EC57FA4F858181FF03C073
:101540008781908508958FEF9FEF08950E94750A17
:101550008F3F19F481E090E00895282F33278BE026
:1015600090E0289FF001299FF00D389FF00D112485
:10157000EC57FA4F85818860858380E090E008957C
:101580002F923F924F925F926F927F928F929F9293
:10159000AF92BF92CF92DF92EF92FF920F931F9381
:1015A000CF93DF93CDB7DEB729970FB6F894DEBFA0
:1015B0000FBECDBF6FB76983F8942090AE04309012
:1015C000AF044090B0045090B1046624772488247E
:1015D000EEE4AE2E73E8B72ECC24DD24EE24FF24F7
:1015E00000E010E0222D332D442D552D662D772D52
:1015F000882D90E00E9462322A833B834C835D8376
:101600006E837F8388879987822E932EA42EB52E92
:101610002401350100E20E946033A22EB32EC42EB5
:10162000D52EA301920156954795379527952A0DFA
:101630003B1D4C1D5D1D57FF05C05F772F5F3F4F62
:101640004F4F5F4F2093AE043093AF044093B004EC
:101650005093B104E9818E2F99278FBFCA01B90138
:1016600029960FB6F894DEBF0FBECDBFDF91CF91A4
:101670001F910F91FF90EF90DF90CF90BF90AF90B0
:101680009F908F907F906F905F904F903F902F90A2
:1016900008950E94C00ADC01CB010895AF92BF9269
:1016A000CF92DF92EF92FF920F931F93F82E5A0181
:1016B0006B010E94CA09AB01BC01F1E0EF2E96015B
:1016C00085018F2D0E94AB091F910F91FF90EF9024
:1016D000DF90CF90BF90AF9008956E5F0E94970803
:1016E000009709F002960895FC0127813085C90111
:1016F000A3E0880F991FAA95E1F7820F931F860F29
:10170000971F6AE070E00E940E3470876783089527
:10171000FC0161859285662329F48AE0989FB001D7
:10172000112409C077278AE0989FC00111240E94E4
:10173000223411861286CF010E94740B0895809185
:101740003502E82FFF27EE0FFF1FEE50FD4E0190F0
:10175000F081E02D20913702222351F08F5F80939A
:1017600035028F3011F41092350221502093370248
:10177000CF010895AC012091F0042C3018F081E0E5
:1017800090E008958091B204682F620F712D711D51
:10179000FB016C30710508F03C97EE0FFF1FEC5514
:1017A000F34F518340832F5F2093F00480E090E05B
:1017B0000895AC012091EF042C3018F081E090E006
:1017C000089580915D13682F620F712D711DFB01CB
:1017D0006C30710508F03C97EE0FFF1FE559F54E90
:1017E000518340832F5F2093EF0480E090E00895C1
:1017F0000F931F93CF93DF93EC01892BE9F0209196
:101800001C1330911D138FEF2F3F3807A9F08091E3
:10181000E702813019F4198218820BC000911E135F
:1018200010911F13C9010E948D0A080F191F1983F7
:10183000088380E090E002C081E090E0DF91CF91EA
:101840001F910F910895FC0180818D509927089573
:101850000E94230C88509927089520915503222334
:1018600019F440E050E016C08091FF02E82FFF27F6
:10187000EE0FFF1FEB5BFC4E408151811182108205
:101880002150209355038F5F8093FF028A3011F41B
:101890001092FF02CA010895AC01209140022A3043
:1018A00018F081E090E0089580913F02E82FFF2733
:1018B000EE0FFF1FEE52F34F518340838F5F8093F3
:1018C0003F028A3011F410923F022F5F20934002B2
:1018D00080E090E008958FB7F894282F3327922F57
:1018E00080918D0C8A3041F080912604843021F063
:1018F0002FBF89E090E008959FBF83E00E94D80148
:1019000080E090E008950E946B0C9927882329F0CD
:10191000893019F080E00E94D8010895EF92FF927B
:101920000F931F930E94CA09DC01CB01E0902106AE
:10193000F090220600912306109124064091500257
:10194000509151026091520270915302411551051C
:1019500061057105C1F03FB7F8942091B30720FDF0
:101960000BC02E7F2093B3078E199F09A00BB10BDC
:10197000481B590B6A0B7B0B832F99278FBF85E080
:101980000E944E0B05C0809129068D7F8093290609
:101990001F910F91FF90EF9008959BE0899FF001B8
:1019A0001124EC57FA4F71836083128213821482E0
:1019B00085E0858316821086178208954F925F9284
:1019C0007F928F929F92AF92BF92CF92DF92EF92CF
:1019D000FF920F931F93CF93DF93CDB7DEB722977C
:1019E0000FB6F894DEBF0FBECDBF782EC62E882E60
:1019F00099248BE090E0889EF001899EF00D989EDE
:101A0000F00D1124EC57FA4F858182FF03C06283E9
:101A10008B7F85838281DC2CD81AC28283818F5F81
:101A20008383DD2021F084818D0D81508483838127
:101A30002481820F912D911D039724F422E02D150E
:101A400008F050C0A080B18074E8472E75E0572E92
:101A5000F201808191818A159B05D1F5858180FFF6
:101A600037C08260858363811481160F133008F4B8
:101A700013E0F201068189E0089F700111247727A5
:101A8000882799272AEF30E040E050E00E94E333B6
:101A9000212F3327442755270E943534C701820F51
:101AA000911D6AE070E00E942234F2016683138285
:101AB0001482662341F0772784EC99E00E94223457
:101AC0006B3F710510F06FEF7FEFC2010E94740B46
:101AD0002BE030E0420E531E32EF431635E0530642
:101AE00009F0B6CF8AE08D15B8F48BE090E0889EBF
:101AF000F001899EF00D989EF00D1124EC57FA4FDD
:101B0000FA83E98360817181872D0E94CD0CE98180
:101B1000FA81C28281E0838322960FB6F894DEBFF9
:101B20000FBECDBFDF91CF911F910F91FF90EF902E
:101B3000DF90CF90BF90AF909F908F907F905F90FD
:101B40004F90089580E090E0E9E8F5E09C01808105
:101B500080FF08C0C90101963B968A309105B1F714
:101B60002FEF30E0C9010895982FAFEF60E070E0EB
:101B700040E050E0E9E8F5E08081282F332720FF9E
:101B80000BC021FF09C023FD07C022813381261726
:101B9000370710F0A42FB9014F5F5F4F3B964A30D3
:101BA000510551F7892F99276817790718F48FEF96
:101BB00090E008958A2F99270895AC01309104038D
:101BC0008FEF4F3F580711F020E012C0832F992765
:101BD0000895E22FFF27A3E0EE0FFF1FAA95E1F77C
:101BE000E253FC4F808191818417950719F02F5F94
:101BF000231779F7822F992708951F93CF93DF93A7
:101C0000162FC0E0D0E062E60E946D0BFC018081DF
:101C10008123811711F4C1E0D0E0CE01DF91CF9193
:101C20001F9108952FB7F894332790930B02809358
:101C30000A022FBF0895AF92BF92CF92DF92EF9228
:101C4000FF920F931F930E94CA097B018C01209180
:101C5000BF043091C0044091C1045091C2048091EE
:101C6000B8049091B904A091BA04B091BB04820F5A
:101C7000931FA41FB51FE216F3060407150730F0E3
:101C800082179307A407B50758F005C0821793077A
:101C9000A407B507E0F5E816F9060A071B07B8F52B
:101CA0009C01AD012E193F09400B510B213060E022
:101CB000360760E0460762E0560768F180E090E092
:101CC000A0E0B2E0E80EF91E0A1F1B1FE092BF045D
:101CD000F092C0040093C1041093C20480E090E02D
:101CE000A0E0BEEFE80EF91E0A1F1B1F2050304077
:101CF000404052402093B8043093B9044093BA0452
:101D00005093BB0420E030E040E052E014C020E0FB
:101D100030E040E050E08093BF049093C004A09373
:101D2000C104B093C2041092B8041092B904109286
:101D3000BA041092BB0459016A0186E0AA0CBB1CCC
:101D4000CC1CDD1C8A95D1F7B6E0EE0CFF1C001F01
:101D5000111FBA95D1F70E94DF089B01AC012E5FDD
:101D60003F4F4F4F5F4FDA01C9018E199F09A00BFA
:101D7000B10B8A159B05AC05BD0530F4A801970190
:101D80002A0D3B1D4C1D5D1D5093F8004093F7003C
:101D90003093F6002093F50081E08093E00080917D
:101DA000DF0081608093DF008FEF809309021F9135
:101DB0000F91FF90EF90DF90CF90BF90AF9008957C
:101DC0000F931F930FB7F89411276093BF0470937C
:101DD000C0048093C1049093C2042093B80430934C
:101DE000B9044093BA045093BB040E941B0E0FBF6A
:101DF0001F910F9108959FB7F8948091260488232E
:101E000019F484E080932604892F99278FBF9FB708
:101E1000F89480918D0C882319F48AE080938D0CBE
:101E2000892F99278FBF0E949F0280E090E008953C
:101E30001F920F920FB60F9211248F938091B704C7
:101E40008F5F8093B7048F910F900FBE0F901F90FC
:101E500018951F920F920FB60F9211242F933F9354
:101E60004F935F936F937F938F939F93AF93BF93A2
:101E7000EF93FF938091DF008E7F8093DF008FEFE1
:101E8000809309028091B8049091B904A091BA049A
:101E9000B091BB040097A105B10521F489E00E942F
:101EA000D80102C00E941B0EFF91EF91BF91AF912C
:101EB0009F918F917F916F915F914F913F912F9162
:101EC0000F900FBE0F901F9018951F920F920FB694
:101ED0000F9211240F900FBE0F901F9018952F9204
:101EE0003F924F925F926F927F928F929F92AF92AA
:101EF000BF92CF92DF92EF92FF920F931F93CF93F7
:101F0000DF934C0180914E03882309F02DC180910D
:101F1000F104853009F028C18091F112882309F07D
:101F200023C1B40182E00E947B09882311F490E070
:101F30000BC025E730E0820E931EF40191812BE85F
:101F40003FEF820E931E9F708091F205981729F043
:101F50009093F205906C9093450114010894211C14
:101F6000311CF1018181F401218140E09927982FF2
:101F700088273327822B932B87749C7C8154984825
:101F800009F441E04423A9F08091460199278F711B
:101F9000907020915B1340910003240F312D311D6F
:101FA00043E0359527954A95E1F7281739070CF452
:101FB000DBC089E080934201B40184E00E947B0988
:101FC000882319F4C0E0D0E006C0D4018C9185507C
:101FD000E401C80FD11DF40180819927282F809337
:101FE0008001809141018F71893021F086E08093DA
:101FF0004201BAC00EEFF02EF20E0FB7F89411277F
:102000000E94DF082B013C0182E0809342010FBF58
:102010008BE090E0A0E0B0E0480E591E6A1E7B1EE7
:102020006F2D7727209709F47EC02881E9808A8167
:10203000AB809927AA27BB27BA2FA92F982F8827CB
:10204000332744275527522F442733272227FF249D
:10205000002711278701FF24EE242E293F29402B3A
:10206000512BBB24CC24DD242A293B294C295D2972
:10207000822B932BA42BB52B84199509A609B7099C
:102080008B83292F3A2F4B2F55272A839D014427D5
:10209000552729838B2F9927AA27BB278883AB0134
:1020A000B10181E891E00E948E3486E08093420184
:1020B0002881E9808A81AB809927AA27BB27BA2F7C
:1020C000A92F982F8827332744275527522F442795
:1020D00033272227FF24002711278701FF24EE241E
:1020E0002E293F29402B512BBB24CC24DD242A2927
:1020F0003B294C295D29822B932BA42BB52B840DD6
:10210000951DA61DB71D8B83292F3A2F4B2F5527C1
:102110002A839D014427552729838B2F9927AA2796
:10212000BB27888309C0AB01B10181E891E00E941F
:102130008E3486E080934201F401EC58FF4F808199
:1021400082608083A0E7B0E08A0E9B1EF40140828B
:1021500051826282738286E08093F10484E08093EE
:102160004E0380E090E002C085E090E0DF91CF91E7
:102170001F910F91FF90EF90DF90CF90BF90AF90A5
:102180009F908F907F906F905F904F903F902F9097
:102190000895CF93DF9382E18093590280912C02BE
:1021A0008823F1F4809131039927982F8827209173
:1021B00032033327822B932B019680933203892F8E
:1021C000992780933103A1E8B9E1E7E2F3E082E1E6
:1021D00001900D928150E1F78BE00E94D80117C069
:1021E0000E942D0CEC01892BD1F04091590255270A
:1021F00067E273E081E899E10E948E34CE010E948B
:102200004C0C882321F0CE010E94560A08C010927F
:102210003603109235031092380310923703DF9182
:10222000CF91089521E02093C7042093AD070E9429
:10223000F0080895EF92FF920F931F93809112027E
:1022400090911302A0911402B0911502B695A79532
:102250009795879580931E0490931F04A093200464
:10226000B09321040E94C00AE0901E04F0901F0465
:102270000091200410912104A80197010E94353497
:10228000AB01BC014E0D5F1D601F711F40931E040A
:1022900050931F046093200470932104109216132E
:1022A00080910E068D7F80930E0682E00E944E0B79
:1022B0001F910F91FF90EF90089580E094E0A0E0CF
:1022C000B0E08093120290931302A0931402B09393
:1022D00015020E941A1108951F93982F1FB7F894A2
:1022E00080913102823099F580910F02891779F53A
:1022F00080910D0220E030E08F3F11F421E030E0CA
:10230000232BF1F49FEF90930F028F3F19F42FEFDF
:1023100030E00DC0282F3327F901E353FC4F8081B3
:1023200080930D028F3F11F490930E0290832093BF
:10233000520381E0809331028DE00E94D80105C0F4
:102340008FEF80930F021092310221E001C020E054
:10235000812F99278FBF90E0213009F491E081E02F
:102360009827892F99271F91089580E00E946C116A
:10237000992708950F931F93FC0100810D50112799
:1023800062E00E949708FC01208133272F70307093
:10239000C901880F991F820F931F081B0250802FBD
:1023A00099271F910F910895EF92FF920F931F931A
:1023B000CF93DF93FC017B018A01422F2FB7F89462
:1023C00033278EB190E189278EB92FBF80913503D5
:1023D0009927982F8827209136033327822B932B18
:1023E000019680933603892F992780933503EB015B
:1023F0003C818FB7F894992720910C028FBF321738
:1024000009F07DC0E336F105E9F1EC3FF10521F477
:102410008EE08093590246C0E436F10549F1E03779
:10242000F10531F1E536F10519F1E836F10501F173
:10243000E636F105E9F0E137F105D1F0E736F105CF
:10244000B9F0E936F105A1F0ED36F10519F0E23702
:10245000F10511F48AE1DDCFE33DF10571F0E93CCE
:10246000F10501F1EC36F10541F0E43DF10511F41F
:1024700084E1CFCFEA36F10511F48EE1CACFEA3F0D
:10248000F10511F482E1C5CFEF3FF10519F4409356
:10249000590208C08FB7F89499272EB134E023274A
:1024A0002EB98FBF80912C02882379F48091590234
:1024B000853628F522C05527B80181E899E10E94A8
:1024C0008E348BE00E94D8011AC00E942D0CEC01C2
:1024D0000097A9F040915902453688F40C9679F09E
:1024E0005527B8010E948E34CE010E944C0C8823DF
:1024F00031F0CE010E94560A02C04817E1F2C7012E
:10250000DF91CF911F910F91FF90EF900895CF939E
:10251000DF9310922C029091400220E0992309F45D
:1025200021E0222349F580913E02E82FFF27EE0F9C
:10253000FF1FEE52F34F0190F081E02D222351F462
:102540008F5F80933E028A3011F410923E029150C8
:1025500090934002309781F0C5E7D9E1DF0187E72A
:102560000D9009928150E1F7CF010E94560A88230D
:1025700019F48BE00E94D801DF91CF9108950E9459
:10258000FB0E9927882329F0893019F081E00E94F9
:10259000D801089580912404823031F481E0809341
:1025A00024048FE00E94D80108958F929F92AF92E9
:1025B000BF92CF92DF92EF92FF920F931F93CF9330
:1025C000DF938091F112882309F401C12FB7F894A9
:1025D00033278091E900882E8091EA00982E80911F
:1025E000EB00A82E8091EC00B82E0091F112109211
:1025F000F1122FBF07FF0DC080914E03833011F001
:10260000873039F485E08093F10488E080934E03AD
:1026100052C080914E03843009F04DC001FF4BC081
:1026200085E08093F10410924E038091050383307E
:1026300019F4109205033FC0C091691AD0916A1A2B
:10264000CE010E94CE08882379F18A8129819927B9
:10265000982F88273327822B932B87749C7C815457
:10266000984811F58F812E819927982F8827332735
:10267000822B932B8F5F9F4FB9F090E08091AD0735
:10268000882309F491E0992379F012E01093C704AC
:1026900081E08093AD076EE370E080E090E00E94FF
:1026A000F0081093050307C010920503109225044B
:1026B00080E00E942C09C02FDD27C5FF4DC080910E
:1026C0004E03863019F410924E0303C0882309F09C
:1026D00043C0A091FF1AB091001B003271F5F09039
:1026E0004601FFE1FF2280910003982F9695969571
:1026F0002F2D291B820F80930003FD01EC58FF4F03
:10270000808182608083A059BF4F8D929D92AD924F
:10271000BC9213970091FF1A1091001BB80182E040
:102720000E943909F801EC58FF4F8081886080834E
:102730000B581F4FF801F1820BC0BD0181E00E94D0
:1027400039096091FF1A7091001B83E00E943909DA
:1027500085E080934E0304C080914E03853089F458
:10276000C4FF0FC020915B13809146018F71922F9F
:1027700096959695891B280F20935B1389E080938B
:102780004E03C0FF0CC08091F104823041F480916F
:102790004E038250823018F483E08093F104C3FF2B
:1027A00016C080914E03863091F4809155018F7749
:1027B0008093550110924E038091410199278770B3
:1027C0009070892B09F42AC28091410127C290910F
:1027D0004E03992309F422C2993009F0A3C1409114
:1027E0007B018091460187FF61C0433008F45EC0E1
:1027F000842F9927823791050CF058C0E091FF1A79
:10280000F091001B41934250552760E871E0CF01E1
:102810000E948E34E091FF1AF091001B818190E0BC
:102820008770823009F491E0992349F020E030E08C
:1028300080910503823081F421E030E00DC08FB734
:10284000F894282F332790E080911013833008F4F8
:1028500091E02FBF292F3327232B41F1E0917B01FA
:10286000FF27E058FE4F8081E091FF1AF091001B96
:10287000EB58FF4F808385E08093F10410924E0364
:10288000E090FF1AF090001B67010894C11CD11C56
:10289000F701818190E0282F332727703070223094
:1028A000310509F491E0992339F430C085E0809333
:1028B000F10410924E03AEC180910503823009F0FD
:1028C0002CC1F7019381E091691AF0916A1A838112
:1028D000981709F022C12230310509F01EC18091FC
:1028E000DF008D7F8093DF008FEF809309021092CD
:1028F000AD07EC58FF4F8081816080831092050303
:102900001092250480E00E942C0907C180910503E4
:102910008823D1F4C7010E9448098823A9F085E0E3
:102920008093F20482E08093F3041092F404F601A1
:1029300082818093F50482EF94E00E946F0F8823D8
:1029400019F483E0809305030E94DF088B01C7011F
:102950000E944809882311F00A5C1F4F10937505E7
:10296000009374050E94DF08061B170BB8011016B0
:102970001106BCF480912504882381F490E08091B5
:10298000AD07882309F491E0992359F0882777FD52
:102990008095982F0E94121180E801C08068809372
:1029A0002504F601808527819927582F442733274E
:1029B000422B532B80910603282F3327F901EE0F6A
:1029C000FF1FE85DFC4E808191817091B2078417F2
:1029D000950769F4F901ED59F54E8081871709F4DF
:1029E00067C0872F8F5F8093B20780831DC000E090
:1029F00010E080E090E0C8E2D3E1E3E6FAE1DF0135
:102A0000682F9C01888199818417950779F4209318
:102A100006039091B2078C91891709F449C0892F58
:102A20008F5F8093B2078C9300E829C08081972F35
:102A3000981B091710F4092F122F6F5FC901019617
:102A400011962296319685309105D1F66530B9F40C
:102A500010930603A12FBB27FD01EE0FFF1FE85DBA
:102A6000FC4E518340838091B2078F5F8093B20701
:102A7000FD01ED59F54E8083AF5FB44E1C929091ED
:102A8000B207892F8F778F3779F40F3768F0E3E635
:102A9000FAE1292F207880818F678913208331966E
:102AA0008AE1E836F807B9F780910603282F332723
:102AB000F6019281A22FBB27FD01EF5FF44E8081CA
:102AC00080FF07C0FD01EF5EFC4E8081981729F161
:102AD00002C081608083AF5EBC4E9C93DFB6F894E9
:102AE000809110138330B0F4E0914313E80FE3308A
:102AF00008F0E350FF27EE0FFF1FE851FD4F008164
:102B00001181F182E0828F5F8093101380E10E9437
:102B1000D80178018D2D99278FBFF092001BE0928C
:102B2000FF1A6FC0292F2150233008F057C0892F7A
:102B30008250823098F48091F104813079F49FEFD3
:102B400090934F0180E880934E01809139018D7FF1
:102B5000809339019093090282E010C0933089F488
:102B60008091F104833069F48DE580934E018FEFFD
:102B70008093090286E08093420184E08093F1040F
:102B800010C0223070F48091F104853051F493E04C
:102B90009093420110924E018FEF8093090290931F
:102BA000F10490914E03913069F48091F1048330E7
:102BB00009F04EC080913901826080933901909371
:102BC000F1041BC09230E9F48091F104833011F5D7
:102BD00010924E018FEF809309020FC0973089F455
:102BE000809174198064809348018091F10485304C
:102BF00021F484E08093F10404C088E080934E03C4
:102C000004C080914E03883029F410924E038EE068
:102C10000E94D80180914E038823D1F48091F10461
:102C20008530B1F48091F112882391F480910503ED
:102C3000882371F480912504882351F490E08091D9
:102C4000AD07882309F491E0992311F00E94CA127C
:102C50008091AD07823009F077C01092AD07F090F7
:102C6000C704F1E0FF1629F022E0F21609F06CC06B
:102C700064C0C0917405D09175050E94DF08209151
:102C80002504203829F4109225040E94CA125CC041
:102C90008E01061B170B27FF03C010161106ECF060
:102CA000C0912204D0912304809105038823A9F4C4
:102CB000CE010E946F0F9927882351F4BE010E9414
:102CC0003909F0920503D0936A1AC093691A31C08A
:102CD0009927F82E882369F102C045E0F42E20914F
:102CE0002504822F99278F77019779F42078226025
:102CF000209325048CE890E00E948909AA27BB272D
:102D0000BC01CD010E9412111FC027FF0EC010167A
:102D100011065CF480E880932504B801882777FDCC
:102D20008095982F0E94121102C0109225048F2DB9
:102D300009C083E08093250407C010920503109218
:102D4000250480E00E942C098FB7F894282F3327A0
:102D500080915103813029F081E0809351032FBF8E
:102D600030CC109251032FBFDF91CF911F910F9163
:102D7000FF90EF90DF90CF90BF90AF909F908F909B
:102D800008958FB7F894282F332780915103882313
:102D900029F08068809351032FBF089581E08093CC
:102DA00051032FBF0E94D51208951F920F920FB6A4
:102DB0000F9211242F933F934F935F936F937F93C1
:102DC0008F939F93AF93BF93EF93FF938091DF0017
:102DD0008D7F8093DF008FEF809309028091AD0794
:102DE000813019F482E08093AD070E94C116FF91F3
:102DF000EF91BF91AF919F918F917F916F915F9173
:102E00004F913F912F910F900FBE0F901F901895EB
:102E100078941F920F920FB60F9211242F933F9325
:102E20004F935F936F937F938F939F93AF93BF93D2
:102E3000EF93FF932FB7F89433278091F1128061BD
:102E40008093F1122FBF0E94C116FF91EF91BF91A5
:102E5000AF919F918F917F916F915F914F913F9132
:102E60002F910F900FBE0F901F90189578941F927E
:102E70000F920FB60F9211242F933F934F935F93AE
:102E80006F937F938F939F93AF93BF93EF93FF9332
:102E90002FB7F89433278091F11288608093F11254
:102EA0002FBF0E94C116FF91EF91BF91AF919F91EB
:102EB0008F917F916F915F914F913F912F910F90E3
:102EC0000FBE0F901F90189578941F920F920FB617
:102ED0000F9211242F933F934F935F936F937F93A0
:102EE0008F939F93AF93BF93EF93FF932FB7F89474
:102EF00033278091F11282608093F1122FBF0E94DC
:102F0000C116FF91EF91BF91AF919F918F917F91EA
:102F10006F915F914F913F912F910F900FBE0F9046
:102F20001F90189578941F920F920FB60F9211244C
:102F30002F933F934F935F936F937F938F939F93C1
:102F4000AF93BF93EF93FF932FB7F89433278091FC
:102F5000F11281608093F1122FBF0E94C116FF9180
:102F6000EF91BF91AF919F918F917F916F915F9101
:102F70004F913F912F910F900FBE0F901F9018957A
:102F800078941F920F920FB60F9211242F933F93B4
:102F90004F935F936F937F938F939F93AF93BF9361
:102FA000EF93FF932FB7F89433278091F112806845
:102FB0008093F1122FBF0E94C116FF91EF91BF9134
:102FC000AF919F918F917F916F915F914F913F91C1
:102FD0002F910F900FBE0F901F90189578941F920D
:102FE0000F920FB60F9211242F933F934F935F933D
:102FF0006F937F938F939F93AF93BF93EF93FF93C1
:103000002FB7F89433278091F11280628093F112E8
:103010002FBF0E94C116FF91EF91BF91AF919F9179
:103020008F917F916F915F914F913F912F910F9071
:103030000FBE0F901F9018958FB7F894282F332745
:1030400080915103815080935103803811F02FBF3C
:10305000089581E0809351032FBF0E94D5120895F7
:103060001F938FB7F8949927209151032F5F2093D6
:1030700051038FBF80912404882311F015E018C0FC
:1030800080914E03882389F48091F104853019F4EE
:1030900089E090E00CC083E080934E030E94C1164B
:1030A00085E08093240410E003C085E090E0182FB1
:1030B0000E941C18812F99271F9108951F93FC01CE
:1030C0008FE3828780914D028F5F80934D028383CF
:1030D0002FB7F8943327809151038F5F809351036A
:1030E0002FBF80912404882311F015E00DC0F093C8
:1030F0008F0CE0938E0C81E08093240410925A0C84
:103100008FE00E94D80110E00E941C18812F99279F
:103110001F91089580915B0C1D9B0CC08823A1F426
:1031200081E080935B0C80E00E94D80185E00E94E2
:1031300009020895882341F010925B0C81E00E94FF
:10314000D80185E00E94220208951F920F920FB6C7
:103150000F9211242F933F934F935F936F937F931D
:103160008F939F93AF93BF93EF93FF9320916B0047
:1031700093B18091CC048927822385FF02C00E94ED
:103180008A18FF91EF91BF91AF919F918F917F919D
:103190006F915F914F913F912F910F900FBE0F90C4
:1031A0001F901895FF920F931F93CF93DF93F82EE4
:1031B0008B01EA01622F253618F086E090E092C07C
:1031C000FA0131968181298170E09927582F44278F
:1031D0003327422B532BCA0187749C7C8154984817
:1031E00009F471E0772349F4CA0180739070816417
:1031F00098688983892F99278183635F68832FB7B4
:10320000F894332780910A0290910B022FBF888790
:10321000892F992789872FB7F894332780910C023B
:103220002FBF99278C831D82CE010E94CC08FC0100
:10323000F0820E83812F99278F838FB7F894282FE0
:10324000332780913102882371F482E08093310228
:1032500010920F022FBFCE010E945E189927182FDF
:10326000882399F00FC02FBFD0935403C09353030A
:103270008FB7F894C82FDD272C2F80913102882337
:1032800099F406C080E00E946C11812F99272AC012
:1032900081E080933102109252038DE00E94D801A8
:1032A000CFBF80E090E01EC08091CD038F3F89F4B6
:1032B000E0910E02EE2369F010C010920D0204C0DE
:1032C000FF27E353FC4F108210920E0280E090E043
:1032D00002C085E090E02FBF05C080910D028F3FB6
:1032E00079F7EBCFDF91CF911F910F91FF90089568
:1032F000EF92FF920F931F93CF93DF938091100271
:103300009927019664E070E00E942234682F809330
:10331000100200E0462F5527FA01EE0FFF1FEA5872
:10332000FA4FC081D181209799F0E62FE695E69576
:10333000E695FF27E45AFC4E808199279A01277071
:10334000307002C0959587952A95E2F780FF0DC0F1
:10335000CA01019664E070E00E942234682F0F5F7A
:103360000430C1F6009310021FC060931002643055
:10337000D8F4E88083EFE80EFF240F811127102F87
:1033800000278E819927082B192BCE010E94CC088B
:10339000FC012E2DAE01B80180810E94D218882335
:1033A00019F084E10E94D801DF91CF911F910F9114
:1033B000FF90EF900895EF92FF920F931F93CF939A
:1033C000DF93E82E8B01F42E83E08E1518F481E054
:1033D00090E03BC0CE2DDD27CC0FDD1FCA58DA4F61
:1033E00088819981892B19F085E090E02EC079833E
:1033F0006883EDE0FE0EFB01F082F3EFFF0E80919B
:103400001002843018F480E090E01FC0CB010E94CD
:10341000CC08FC018081F80167817727762F662729
:1034200026813327622B732BE09210022F2DA801E7
:103430000E94D2189927282F882329F084E08093AE
:10344000100219821882822F9927DF91CF911F9144
:103450000F91FF90EF900895CF92DF92EF92FF923D
:103460000F931F93CF93DF936C0168E08AE592E09E
:103470000E949708EC01892B09F48EC081E08093AB
:103480004302FE0132968A819927382F22278181B3
:103490009927282B392B2830310518F011821A82F0
:1034A0007BC0C90101968183892F99278A83C982AC
:1034B0008D2D9927888384E3C81682E1D80629F0E8
:1034C00020E030E040E050E008C02091440230911C
:1034D00045024091460250914702FE0134962383F3
:1034E000BB27A52F942F832F8283CA01AA27BB272E
:1034F0008183252F3327442755272C83E280FF24FF
:1035000000271127102F0F2DFE2CEE24522F4427B9
:10351000332722279927AA27BB27DC019927882749
:10352000282B392B4A2B5B2B83819927AA27BB2772
:10353000282B392B4A2B5B2BE22AF32A042B152B41
:10354000E114F1040105110511F410E012C084E347
:10355000C81682E1D80621F41CE06EEB7CE003C0C3
:1035600010E060E070E0412F5527CE0108960E94E0
:103570008E348FEF80936002809361028AE592E03F
:103580000E94CC08FC0180E68083185F412F6AE529
:1035900072E082E00E94DB19DF91CF911F910F91C1
:1035A000FF90EF90DF90CF900895CF93DF9310922C
:1035B000490290914C0220E0992309F421E0222352
:1035C00049F580914A02E82FFF27EE0FFF1FE552D1
:1035D000FB4F0190F081E02D222351F48F5F809307
:1035E0004A028A3011F410924A02915090934C0290
:1035F000309781F0C6E5D3E0DF0187E70D900992AF
:103600008150E1F7CF010E94370A882319F48DE138
:103610000E94D801DF91CF910895CF92DF92FF925F
:103620000F931F93CF93DF93082F6B01F42EE82F96
:10363000FF27EE0FFF1FE95CFC4E11821082809184
:1036400016029927019662E070E00E942234682FEA
:103650008093160210E0462F5527FA01EE0FFF1F48
:10366000E95CFC4EA081B181109799F0E62FE695B8
:10367000E695E695FF27EB54FB4F808199279A0149
:103680002770307002C0959587952A95E2F780FFE4
:103690000DC0CA01019662E070E00E942234682FDA
:1036A0001F5F1230C1F6109316021AC06093160203
:1036B0006230B0F4FD01359624813327ED016D8130
:1036C0007727762F662781819927682B792BAD0183
:1036D00086810E94F607882319F088E10E94D801AC
:1036E000002319F0013051F405C06F2DC6010E946E
:1036F000871204C06F2DC6010E94D51ADF91CF91A9
:103700001F910F91FF90DF90CF90089510921E02AD
:1037100010921D028FB7F8949927409121028FBF14
:1037200080912202811143E020911B0230911C0202
:1037300080912302882319F0823739F512C08091D5
:103740001602823010F5E82FFF27EE0FFF1FE95C0D
:10375000FC4E6081718162177307B9F40E940D1BE2
:103760000895442321F088E00E94D80108958FB77E
:10377000F89488E190E029E00FB6F894A89580933A
:1037800060000FBE20936000FFCF08958091160265
:10379000E82FFF27EE0FFF1FE95CFC4E608171816F
:1037A00041E00E940D1B0895DF92EF92FF920F936C
:1037B0001F93CF93DF938B01EA01D22E8D3609F44C
:1037C00064C08E3600F5873609F450C0883678F428
:1037D000843609F43FC0853620F4833609F099C059
:1037E00036C08536E9F1863609F093C03CC089368B
:1037F00009F442C08936E8F18A3609F440C08C36B3
:1038000009F087C03FC0893C09F474C08A3C78F451
:10381000813709F440C0823720F4803709F079C03D
:1038200037C08237D9F1893809F073C03AC0843D76
:1038300009F466C0853D20F4833D09F06AC05DC08F
:103840008A3F09F460C08C3F09F063C05FC083E623
:1038500090E002C084E690E00E94D411BC015AC0FE
:1038600085E690E0F9CF86E690E0F6CF87E690E037
:10387000F3CF88E690E0F0CF89E690E0EDCF8AE6DE
:1038800090E0EACF8CE690E0E7CF8DE690E0E4CFE1
:1038900080E790E0E1CF81E790E0DECF82E790E043
:1038A000DBCF80914902882361F4A2E6B3E0FA01FC
:1038B0008CE001900D928150E1F78DE10E94D801DA
:1038C00028C00E94F9097C01892B19F184E68D1525
:1038D00000F1C7010C96E9F04D2D5527BE010E945D
:1038E0008E34C7010E94180A882399F0C7010E94EC
:1038F000370A0FC089EC90E0AFCF83ED90E0ACCFFA
:1039000084ED90E0A9CF8AEF90E0A6CF8CEF90E015
:10391000A3CFB801CB01DF91CF911F910F91FF9001
:10392000EF90DF900895AF92BF92CF92DF92EF9227
:10393000FF920F931F93282F33278BE090E0289F4F
:10394000F001299FF00D389FF00D1124E25BFD4F2F
:1039500082819381A481B5810097A105B10569F0A9
:1039600080819181880F991F918380838150944039
:1039700020F080E094E0918380838BE090E0289FAA
:103980005001299FB00C389FB00C11248EE492E0B6
:10399000A80EB91EF50186819781A085B185828325
:1039A0009383A483B583C080D180EE24FF2469E093
:1039B000CC0CDD1CEE1CFF1C6A95D1F70E94C00ADE
:1039C000DC01CB01F50100811181B801762F66275A
:1039D000770F0E940E34AA27BB278C0D9D1DAE1DAC
:1039E000BF1D222733274AE0000F111F221F331F5C
:1039F0004A95D1F7081B190B2A0B3B0B068317833B
:103A0000208731872281338144815581280F391FD6
:103A10004A1F5B1F22833383448355831F910F9179
:103A2000FF90EF90DF90CF90BF90AF9008951F93DD
:103A3000CF93DF93182F482F55278BE090E0489FB6
:103A4000E001499FD00D589FD00D1124C25BDD4F7E
:103A500061E070E0798368831A868A819B81AC81FA
:103A6000BD810097A105B10519F12FB7F89433274F
:103A7000FA01A3E0F695E795AA95E1F7ED54F84F22
:103A80004770507002C0660F771F4A95E2F7808139
:103A9000862B80832FBF1A821B821C821D821E826E
:103AA0001F8218861986812F0E94931C0E948E0CFB
:103AB000DF91CF911F9108958453924119F480E0D2
:103AC0000E94171D08951F93CF93DF938FB7F8942B
:103AD000992720912502C0912602D091270230918A
:103AE0002802109101038FBF222309F490C02237CE
:103AF00009F469C0222309F078C090E08B858838EA
:103B000009F073C09C3009F070C08091E5028823F1
:103B100009F46BC0AEEBBCE0FE013C968CE001907A
:103B20000D928150E1F78091440290914502A0915D
:103B30004602B0914702CD01AA27BB270196A11DDD
:103B4000B11D8093440290934502A0934602B09326
:103B500047020097A105B10561F481E090E0A0E083
:103B6000B0E08093440290934502A0934602B09344
:103B700047028091440290914502A0914602B09183
:103B80004702DC0199278827209100023091010229
:103B900044275527820F931FA41FB51F809344020B
:103BA00090934502A0934602B0934702809117027A
:103BB000882339F084E392E10E942C1A80E00E946D
:103BC000171D8AE110C0333081F48881823569F491
:103BD0008981833551F48A81843539F4D093FD028B
:103BE000C093FC0288E00E94D8018FB7F894E12FBF
:103BF000FF27EE0FFF1FED5FFD4FD183C0832091A4
:103C00001902112311F02B7F05C02D7F03C0932FC4
:103C10009C5074CF209319021092240299278FBFD1
:103C2000DF91CF911F9108958091C1008F7B809388
:103C3000C1008091C1008F778093C10010925C0C0D
:103C40001092A0048091C10088608093C10080918F
:103C5000C10080618093C1008FEF80930902809141
:103C6000C10080688093C1008FB7F89499271092A3
:103C70008D0C109226048FBF8091500290915102BA
:103C8000A0915202B09153020097A105B10539F5F8
:103C9000109250021092510210925202109253024E
:103CA000109254021092550210925602109257022E
:103CB0001092580280E00E94931C8FB7F8949927C5
:103CC0002091B30721602093B3078FBF0E948E0C11
:103CD00080E00E94171D81E08093E50203C080E030
:103CE0000E94171D81E0809317020895CF92DF9202
:103CF000EF92FF920F931F936C017B010E94C00A09
:103D0000DC01CB01B6010E940E34E80EF91E00273B
:103D10001127B801A70184E00E944E0B1F910F915B
:103D2000FF90EF90DF90CF9008950E94C00A2FB7C8
:103D3000F89433277093910C6093900C2FBF0895E3
:103D40001F93CF93DF93EC01162F809111028823EC
:103D500019F5CE010E94DD0DE82F80910403E817CC
:103D600048F4FF2743E0EE0FFF1F4A95E1F7E253C7
:103D7000FC4F178380912113882311F0112349F000
:103D800080911C1390911D138C179D0729F411230A
:103D900019F085E10E94D801DF91CF911F9108951C
:103DA000CF93DF93EC010E94DD0D282F8091040357
:103DB0002817D1F0382F31503093040313C0822FCD
:103DC000992753E0880F991F5A95E1F7DC01A25318
:103DD000BC4FFC01EA52FC4F88E001900D928150EB
:103DE000E1F72F5F231758F380911C1390911D1357
:103DF0008C179D07A1F48FEF9FEF90931D13809375
:103E00001C1310921F1310921E1310922013109265
:103E1000211381E080933D0285E10E94D801DF916A
:103E2000CF91089540911C1350911D132FB7F89412
:103E3000332781E08093E7028091BC0C9091BD0C08
:103E400090931D1380931C1310921F1310921E1336
:103E50002FBF4F5F5F4F19F482E10E94D80180E0CD
:103E600090E00895E1ECF0E08081877F808380819D
:103E70008F7E80838FEF809309020E94121F8091B2
:103E80000002909101020E94120E08958091240474
:103E900010922404853031F581E080933A028091BC
:103EA0003B02882361F00E94C00A7F716050704F0E
:103EB000CB01AC016627772782E00E944E0B8091F0
:103EC000320284608093320290E08091370288232E
:103ED00009F491E0992319F482E10E94D8010E942B
:103EE0006B0C0895863031F4809132028B7F809381
:103EF00032020895873011F08093240408951F93AF
:103F0000CF93DF93162FC0E0D0E068E00E949708BF
:103F1000FC0180818123811711F4C1E0D0E0CE0142
:103F2000DF91CF911F91089568E00E949708FC01EE
:103F300087819927089568E00E949708FC01818194
:103F40009927089568E00E949708FC0186819927C7
:103F5000089568E00E949708FC0184819927982FB2
:103F6000882725813327822B932B0895BF92CF92E8
:103F7000DF92EF92FF920F931F93CF93DF937C0119
:103F8000B090E602D0906905CC2428C00D2D0370B6
:103F90001127C7010E94A91FE801CC0FDD1FCC0F1C
:103FA000DD1FC00FD11FC65CDC4F2881398182170D
:103FB000930791F4C7010E94A21F9A81981761F498
:103FC000C7010E949B1F9C81981731F4C7010E9472
:103FD000941F9B81981721F0C394D394CB14B1F60E
:103FE0008C2D9927DF91CF911F910F91FF90EF902A
:103FF000DF90CF90BF9008950E94B61F20E030E080
:104000009091E602891710F421E030E0C90108958B
:10401000AF92BF92CF92DF92EF92FF921F93CF9316
:10402000DF935C01EC01EA81E330A0F4FF27EE0F9F
:10403000FF1FEB53FB4E918380838A81882321F0FD
:10404000823009F089C003C010922B0285C0109203
:10405000410282C0442309F477C0FC01C080D180B2
:104060008091E602843009F046C0C6010E94B61F66
:104070002091E602622F0E940234492F9217D8F550
:10408000992359F4809169059927019664E070E0BD
:104090000E9422348093690529C080916905840FAC
:1040A000912D911D9C0123703070E901CC0FDD1F13
:1040B000CC0FDD1FC20FD31F019664E070E00E9499
:1040C0002234FC01EE0FFF1FEE0FFF1FE80FF91F58
:1040D000C65CDC4FE65CFC4F85E0019009928150A4
:1040E000E1F74F5F8091E6024817B8F28091E6024F
:1040F00081508093E6021091E60280916905810F5C
:10410000912D911D837090707C01EE0CFF1CEE0CC4
:10411000FF1CE80EF91E8AE393E0E80EF91EC601C3
:104120000E94A91FE70199838883C6010E94A21FEC
:104130008A83C6010E949B1F8C83C6010E94941F24
:104140008B831F5F1093E602F501808191810E94AD
:10415000BA0BC5010E94D90BDF91CF911F91FF903F
:10416000EF90DF90CF90BF90AF9008950F931F9383
:10417000CF93DF93EC01E0913502FF27EE0FFF1F95
:10418000EE50FD4E00811181662329F060E870E059
:1041900080E890E032C08091320283FF40C0BE01CF
:1041A00080E00E947B098823D1F58F819927982F81
:1041B00088272E813327822B932B0E94750A982FF4
:1041C0008F3F71F08BE0989FF0011124EC57FA4F6C
:1041D00082858F5F8287853018F0CF010E94880B1F
:1041E00085E10E94D801F80183818150838388236F
:1041F00039F060E270E080E290E00E94761E3FC0FD
:104200000E949F0B809132028F7E8093320260E287
:1042100070E080E290E00E94761E40E02CC00E9498
:104220009F0B809132028F7E8093320260E270E0B9
:1042300080E290E00E94761E8F819927982F882730
:104240002E813327822B932B0E94750A982F8F3F44
:1042500089F08BE0989FF0011124EC57FA4F81858B
:104260008F5F818782858F5F8287853018F0CF01CD
:104270000E94880B41E0BE01C8010E940820DF9126
:10428000CF911F910F910895282FCB01213059F024
:10429000213028F0223089F02330A1F411C0642F9E
:1042A0000E94B62008956752744061F480913C02E8
:1042B000882341F010923C02089510924302089521
:1042C000109243020895EF92FF921F9310911002F3
:1042D000E12FFF27EE0FFF1FEA58FA4FE080F18031
:1042E000118210820E94781941E0B701812F0E944B
:1042F00044211F91FF90EF900895FF920F931F9319
:10430000CF93DF93F82E8B018091320281FD03C0A1
:1043100084E090E05AC04D3518F082E090E055C03E
:104320004B5EFB01408368E0C8010E949708FC01D6
:1043300080910002909101028583892F99278483BF
:104340008091FE028F5F8093FE0281508683CF2D85
:10435000DD2781E0F81659F0F81638F082E0F816FB
:1043600011F48CEF05C080E003C083E601C089E84A
:1043700087831182FE01EE0FFF1FEB53FB4E01906E
:10438000F081E02D309719F485E090E01EC0118394
:104390000083F2828EE18383CF010E94AD088823DF
:1043A00019F081E090E011C08091320282FF05C0D7
:1043B00084FD03C082E10E94D801CC0FDD1FCB53E6
:1043C000DB4E1982188280E090E0DF91CF911F913F
:1043D0000F91FF9008958CEF8093EF021092EE0200
:1043E00080913B13282F33278F5F80933B132093BB
:1043F000F1021092F00280910002909101028093EC
:10440000F302892F99278093F202809126139091CD
:1044100027138093F502892F99278093F4028091C6
:10442000591390915A138093F702892F99278093FB
:10443000F6028091AE079091AF07A091B007B091BE
:10444000B1078093FB02292F3A2F4B2F552720933A
:10445000FA029D01442755272093F9028B2F9927B3
:10446000AA27BB278093F802809141028823D1F4C8
:104470006EE086EE9CE00E949E08009709F1FC0128
:10448000AEEEB2E08EE00D9001928150E1F74EE089
:1044900066EE7CE082E00E947D21882319F481E0B1
:1044A00080934102809142028F5F80934202833069
:1044B00038F01092420280913B068D7F80933B063C
:1044C00008959F92AF92BF92CF92DF92EF92FF92A8
:1044D0000F931F93CF93DF93CDB7DEB722970FB61D
:1044E000F894DEBF0FBECDBF809134028F5F809302
:1044F00034028091320284FDEDC090E08091370259
:10450000882309F491E0992309F0E4C08091E7023F
:10451000882359F420E080911C1390911D138F5F24
:104520009F4F09F021E0222331F0CE0101960E9435
:10453000F80B882341F040E157E260E070E084E04E
:104540000E944E0BC7C0E0913502FF27EE0FFF1F00
:10455000EE50FD4EC080D180D6010D911C91C80156
:104560000E94230C982EA0901C13B0901D13C8011C
:104570000E94B61F20E09091E602891708F421E01E
:10458000222359F00E949F0BF601808191810E94A5
:10459000BA0BC6010E94D90B9AC08091E702D601DE
:1045A000ED90FC90882381F168E0C7010E94970894
:1045B000FC01B780A091C304B091C404F70187E760
:1045C00001900D928150E1F70091C3041091C40451
:1045D000C8010E94230C98EFE92EE80EFF246E2DEF
:1045E000C8010E949E082E2DAC01B8018B2D0E949F
:1045F000D41B9093C4048093C30460E0D6018D91D2
:104600009C910E94B62066C009811A8168E0C701AA
:104610000E949708FC010383012F1127028368E0A1
:10462000F601808191810E949708FC0180818F733F
:104630008083D6014D915C91DA011196FD012181B3
:104640003327322F2227FA01818199278062282B74
:10465000392B2183232F3327FD01218380913202BF
:1046600088608093320280FF0FC068E0D6018D9190
:104670009C910E949708FC018081806480838091D6
:1046800032028E7F80933202F60100811181F8019F
:10469000A6828B2D99278783C8010E94CC08FC0134
:1046A000A1E7FA2EF082492DB80180E00E94DB19C3
:1046B0009927882331F480913202806180933202FD
:1046C00009C0823039F4D601ED91FC91F08282E18B
:1046D0000E94D80122960FB6F894DEBF0FBECDBF60
:1046E000DF91CF911F910F91FF90EF90DF90CF90CE
:1046F000BF90AF909F9008950F931F93CF93DF9338
:10470000062F109110021430A0F4E12FFF27EE0FB6
:10471000FF1FEA58FA4FC081D181C817D90749F461
:10472000118210820E947819402FBE01812F0E94B1
:104730004421DF91CF911F910F9108950F931F9303
:104740008091B504882369F110E001E02091B5045F
:10475000822F8023F1F0E12FFF27EE0FFF1FE95C8E
:10476000FC4E4081518111821082802F8095282338
:104770002093B504112319F0113059F405C063E0FA
:10478000CA010E9487120AC063E0CA010E94D51ABA
:1047900005C01F5F183028F4000FD8CF000F1F5F2F
:1047A000D5CF1F910F910895EF92FF920F931F9312
:1047B000CF93DF932FB7F8943327809151038F5F06
:1047C000809351032FBF40912404413081F58091A3
:1047D0005A0C8F5F80935A0C863048F520918E0CCE
:1047E00030918F0C809125048823E1F490E0809132
:1047F000AD07882309F491E09923A1F030932304B5
:10480000209322044093250486E391E00E948909C5
:10481000AA27BB27BC01CD010E94121110925F1381
:1048200083E032C085E080935F1382E02DC0109258
:1048300024040E941C18E0905F13C0918E0CD0914C
:104840008F0C8A858F3321F580E00E946C11CE0198
:104850000E94CC08F090100283E08F15C8F0EF2D75
:10486000FF27EE0FFF1FEA58FA4F008111810C1746
:104870001D0771F4118210820E9478194E2DB80123
:104880008F2D0E94442104C0809324040E941C1890
:10489000DF91CF911F910F91FF90EF900895EF92CC
:1048A0000F931F9380913B028823E9F481E080936A
:1048B0003B0280E094E0A0E0B0E08093120290938D
:1048C0001302A0931402B09315020E941A110E94C1
:1048D000CA09AB01BC01EE2400E010E220E030E0A8
:1048E00083E00E94AB0980E090E01F910F91EF9070
:1048F0000895AF92BF92CF92DF92EF92FF920F9303
:104900001F93CF93DF935B016C01C0E0D0E0E4EF35
:10491000F5E0608561FF62C1208131814281538170
:10492000E480F58006811781D601C501821B930BB7
:10493000A40BB50B8E159F05A007B10708F44EC157
:1049400060FF03C06D7F608708C02E0D3F1D401FB4
:10495000511F2083318342835383C33009F4E0C065
:10496000C43038F4C13009F489C0C23008F0A1C0A5
:104970000DC0C53009F4E7C0C53008F4DDC0C6304D
:1049800009F41BC1C73009F05CC124C1A7E2B3E040
:10499000EDECF4E08EE001900D928150E1F7E3E65A
:1049A000FE2EF0922803109227030E94121F80917E
:1049B0000002909101020E94120E0E943018809114
:1049C00032028260809332020E944F2486E690E099
:1049D000A0E0B0E08093930C9093940CA093950C7E
:1049E000B093960C8091050681FF03C08D7F809364
:1049F00005060E94CA09AB01BC01EE2406E610E0E0
:104A000020E030E081E00E94AB09F092CE041092E9
:104A1000CD040E946B0C8091440290914502A091BC
:104A20004602B09147020097A105B10549F4AEEBEB
:104A3000BCE0EAE2F7E08CE001900D928150E1F7F2
:104A400080910002909101028093990C892F9927FF
:104A50008093980C10929B0C10929A0C0E94301824
:104A6000882309F0EDC08091320282608093320287
:104A70000E944F24882309F4E4C0E2C08CE00E9425
:104A8000D8012FB7F894332780912D0290912E02F0
:104A9000A0912F02B09130020196A11DB11D80930B
:104AA0002D0290932E02A0932F02B09330022FBFBD
:104AB000C8C080913A02882309F4C3C080913B02A8
:104AC000882309F4BEC080911613882309F497C087
:104AD0008091120290911302A0911402B0911502DC
:104AE000880F991FAA1FBB1F809312029093130275
:104AF000A0931402B093150281509441A040B0409D
:104B000060F080E094E1A0E0B0E080931202909326
:104B10001302A0931402B09315020E941A1191C0BF
:104B200080913A02882309F48CC080913B0288234B
:104B300009F487C085E14FC0809132028F7E809357
:104B4000320282E148C0209125063091260640912C
:104B50002706509128068091500290915102A09111
:104B60005202B09153020097A105B10519F1821BC1
:104B7000930BA40BB50BB1F480915802882361F418
:104B80002FB7F89433278091830581608093830544
:104B90002FBF8BE10E94D80180E00E94931C1092ED
:104BA000580208C08093500290935102A093520281
:104BB000B09353020E948E0C44C020916A0530913C
:104BC0006B0580910203909103038217930768F0AD
:104BD0008CE101C089E10E94D80133C02196399649
:104BE000C830D10509F095CE2CC0809132068D7F5A
:104BF0008093320610926B0510926A0522C085E1FF
:104C00000E94D80186E10E94D80140911202509181
:104C10001302609114027091150280911E0490910C
:104C20001F04A0912004B0912104481B590B6A0B6A
:104C30007B0B81E08093161382E00E944E0B01C033
:104C400073988AE00E94D801DF91CF911F910F9154
:104C5000FF90EF90DF90CF90BF90AF900895EF92CC
:104C6000FF920F931F9380915003882361F5209149
:104C70003313309134134091351350913613EFB7FD
:104C8000F894FF276091BF047091C0048091C10423
:104C90009091C204E090B804F090B9040091BA0475
:104CA0001091BB046E0D7F1D801F911FEFBF2093DD
:104CB00033133093341340933513509336131092BB
:104CC00050030E94E00E0E94CA090E9479241F919D
:104CD0000F91FF90EF900895AF92BF92CF92DF9225
:104CE000EF92FF920F931F930E94CA095B016C0120
:104CF0008091DF008E7F8093DF008FEF8093090229
:104D0000FFEFEF2EFFEFFF2EFFEF0F2FFFE71F2F1D
:104D100060E0E4EFF5E0808581FF1CC08081918137
:104D2000A281B381A6019501281B390B4A0B5B0BAD
:104D3000DA01C9012481358146815781281B390B4D
:104D40004A0B5B0B2E153F05400751071CF47901F8
:104D50008A0161E0399636E0EC33F307E1F6662329
:104D6000D9F01E141F04100611062CF0C601B5015F
:104D70000E94792411C0E0923313F092341300930F
:104D800035131093361381E080935003A8019701E7
:104D9000C601B5010E94E00E1F910F91FF90EF90A8
:104DA000DF90CF90BF90AF900895AF92BF92CF9217
:104DB000DF92EF92FF920F931F93CF93DF93CDB7C4
:104DC000DEB728970FB6F894DEBF0FBECDBF809137
:104DD000C00C9927382F22278091C10C9927282BA6
:104DE000392B80910002909101022817390721F098
:104DF0002F5F3F4F09F0D0C08091C20C9927982FA8
:104E000088272091C30C3327822B932B9093271351
:104E1000809326138091C40C9927782F6627809160
:104E2000C50C9927682B792B70935A1360935913EB
:104E30008091C80C9927AA27BB27EE24F82E092FAA
:104E40001A2F2091C60C332744275527522F442769
:104E5000332722278091C70C9927AA27BB27DC017B
:104E600099278827282B392B4A2B5B2B8091C90C3B
:104E70009927AA27BB27282B392B4A2B5B2BE22A01
:104E8000F32A042B152BE092AE07F092AF070093A4
:104E9000B0071093B10764307105A1F06630710559
:104EA000A9F16330710509F069C0ED82FE820F83BC
:104EB00018878F8198859A8389838D819E819C83B1
:104EC0008B835CC0ED82FE820F8318878D819E816B
:104ED00090930303809302032F8138853C832B83B7
:104EE00084E690E0289F5001299FB00C389FB00CB9
:104EF0001124CC24DD240E94CA09AB01BC01EE249C
:104F00009601850186E00E94AB0938C022E12B831F
:104F100098E1998386E080939F0C10929E0C2093D9
:104F2000A00C9093A10C80914902882369F4A2E619
:104F3000B3E0E8E9FCE08CE001900D928150E1F7EC
:104F40008DE10E94D80117C00E94F9098C010097D9
:104F5000A9F0FC013C96A8E9BCE08CE00D90019220
:104F60008150E1F7C8010E94180A882321F0C80186
:104F70000E94370A03C08DE10E94D8010E94CA092D
:104F8000AB01BC01EE2404E610E020E030E087E055
:104F90000E94AB0910923B1328960FB6F894DEBF1F
:104FA0000FBECDBFDF91CF911F910F91FF90EF907A
:104FB000DF90CF90BF90AF900895EF92FF920F9344
:104FC0001F9379018A016C3018F04CE050E002C068
:104FD000462F5527BC018EEB9CE00E948E34E09258
:104FE0004402F092450200934602109347020E9449
:104FF000D5261F910F91FF90EF9008952F923F9229
:105000005F926F927F928F929F92AF92BF92CF9258
:10501000DF92EF92FF920F931F93CF93DF93CDB761
:10502000DEB722970FB6F894DEBF0FBECDBFE82FD4
:10503000FF27EE31F10508F04BC6E057FF4FEE0FAA
:10504000FF1F0590F491E02D099480915C13882353
:1050500009F006C43DC68FB7F8942091830520FD62
:10506000E0C520E0E2C50E94830C32C60E94BF1258
:105070002FC60E940A052CC60E94141E29C685E070
:105080000E94D80125C60E94321F22C60E94861B9C
:105090001FC60E94631D1CC60E94DE0719C60E941F
:1050A0002F2616C60E946C2613C60E94550810C6ED
:1050B0000E94C9100DC62FB7F89433278091520370
:1050C00080930F0282E0809331022FBF80910F0204
:1050D000882309F0FDC580915303909154030E94E9
:1050E0005E18082F1127002309F4F2C50E94B5119C
:1050F000602F80915303909154030E947C23E8C554
:105100000E94461FE5C50E94D423E2C52FBFE0C51B
:105110008FB7F894282F3327809110138823B1F389
:10512000E0914313FF27EE0FFF1FE851FD4FA080D2
:10513000B1802FBFF5018285178106818F3309F079
:1051400053C3C5010E94CC08FC01E081D5016D91DB
:105150004D01812F9927582F4427802F9927482BBD
:10516000592B8FB7F894992720910A0230910B029E
:105170008FBF4217530721F04F5F5F4F09F0A4C55F
:10518000BCE02B2E312C2A0C3B1C6D50262F3327D4
:10519000522EE33609F4C8C0E43630F4E03659F054
:1051A000E13609F03BC397C0E03709F4C4C0E137EA
:1051B00009F034C3E5C1F501848525859927D82EEA
:1051C000CC243327C22AD32A208961899289738902
:1051D000F4E3CF16F2E1DF0621F0662477244301E1
:1051E00008C0609044027090450280904602909002
:1051F000470280911702882309F410C3892F992749
:10520000AA27BB27EE24F82E092F1A2F332744276D
:105210005527522F442733272227862F9927AA273D
:10522000BB27DC0199278827282B392B4A2B5B2B9E
:10523000872F9927AA27BB27282B392B4A2B5B2B93
:10524000E22AF32A042B152B6114710481049104C2
:1052500069F4E114F1040105110579F124E3C216A2
:1052600022E1D20609F548EF540E17C0E114F1040B
:1052700001051105C9F0D801C70186199709A809C8
:10528000B909181619061A061B0694F484E3C81601
:1052900082E1D80649F498EF590EA8019701652DCF
:1052A000C10108960E94DD27C6010E945C1DB6C29E
:1052B000E614F7040805190561F4A4E3CA16A2E18F
:1052C000DA0609F0ABC2809158028F5F80935802D2
:1052D000A5C2C60126C080911702882309F49EC288
:1052E000F501848525859927982F88273327822BD8
:1052F000932B8453924109F091C280914402909182
:105300004502A0914602B09147020097A105B10560
:1053100009F484C2D1018C919927982F8827822B78
:10532000932B0E942C1A7AC2A101B5018FEF90E055
:105330000E94D4119BC1F501878126819927982F5E
:1053400088273327822B932B8F5F9F4F09F042C012
:10535000C5010E94A9086C01F50181852085992766
:10536000182F00273327022B132BC8010E94750A20
:105370008F3F21F0F601618177270DC00E94A20DB9
:10538000F82EFFEF8F1751F0B8010E94CD0CF601F7
:10539000618177278F2D0E94DE0C1CC081E40E9462
:1053A000B40DF82EFFEF8F17A9F0282F33278BE0CD
:1053B00090E0289FF001299FF00D389FF00D1124F7
:1053C000EC57FA4F808191810E94D01EB8018F2D39
:1053D0000E94CD0CC5010E94BA11853009F01EC291
:1053E000F401F084978065E0C5010E946D0B8C018B
:1053F00060E4C5010E94FD0D582E68010894C11C8F
:10540000D11CF801818116010894211C311CF60180
:1054100021819927982F88273327822B932B8F5F01
:105420009F4F09F4A3C08F2D9927F82EEE24892DC4
:105430009927E82AF92A63E0862E912C800E911E86
:10544000F801838154E0652E712C600E711E248159
:105450009927982F88273327822B932B892B49F55F
:10546000C7010E94750A8F3F09F50E94A20D8F3F68
:1054700011F0B70119C08AE00E94B40D182F8F3FB8
:10548000A9F0282F33278BE090E0289FF001299F77
:10549000F00D389FF00D1124EC57FA4F8081918167
:1054A0000E94D01EB701812F0E94CD0CC7010E941F
:1054B000A60AD4019C90F3018080D601DC90F10112
:1054C000C080C7010E948D0A8C01C7010E94DD0DBA
:1054D000E82F8A3009F446C0892D9927782F66274E
:1054E000882D9927682B792B8D2D9927582F4427A4
:1054F0008C2D9927482B592B80910403E817F1F440
:105500000233110578F52FB7F8943327FF2783E08E
:10551000EE0FFF1F8A95E1F7E253FC4FF182E08224
:10552000538342837583648381E0868317828091ED
:1055300004038F5F809304032FBF14C08FB7F894C8
:105540009927FF2703E0EE0FFF1F0A95E1F7E253CB
:10555000FC4FF182E082538342837583648321E0B0
:1055600026838FBF652DC7010E94A01E60E8C5017C
:105570000E94FD0D882309F451C10E945D114EC1A6
:10558000809133028F5F80933302C5010E94941F84
:10559000782EC5010E949B1F182F1F5FC5010E9416
:1055A000A5084C01FC011183F4E6F51508F436C199
:1055B000C5010E94FC1F882309F030C120913702E9
:1055C000822F9927C82E882309F43EC0D090350237
:1055D000D20E37C02EE02D1510F0ED2D02C0ED2DAE
:1055E000EF50FF27EE0FFF1FEE50FD4E0190F081B0
:1055F000E02DE080F180C7010E94A91F8C01C50148
:105600000E94A91F08171907E1F4C7010E94A21FF1
:10561000182FC5010E94A21F181799F4C7010E94F4
:105620009B1F182FC5010E949B1F181751F4C7011B
:105630000E94941F182FC5010E94941F181709F487
:10564000EDC0DA94CA9431F68091E702882381F0A4
:10565000C5010E94280C182F682FC5010E949E08C2
:10566000212FAC01B501872D0E94D41B5C01D6C04F
:1056700080E02091F004222309F481E0882309F0DE
:10568000CDC09091EF04992309F481E0882309F0BB
:10569000C5C0992309F4C2C080915D13E82FFF278C
:1056A000EE0FFF1FE559F54E008111811182108226
:1056B00091509093EF048F5F80935D138C3011F4C1
:1056C00010925D130115110509F4A8C0222309F4F5
:1056D000A5C08091B204E82FFF27EE0FFF1FEC5505
:1056E000F34FE080F1801182108221502093F0046A
:1056F0008F5F8093B2048C3011F41092B204E114E5
:10570000F10409F48BC087E7D7011D928A95E9F768
:10571000E0E7F0E0AE0EBF1E87E0D5011D928A954E
:10572000E9F7E0E9FFEFAE0EBF1ED801AD92BC92E3
:105730008FEFF80182838EE18383C8010E94AD0858
:10574000882321F5CE0101960E94F80B8823B1F43D
:10575000F401828123819927982F88273327822B70
:10576000932B29813A812817390740F00E945D1157
:1057700060E870E080E890E00E94761E809120064C
:1057800081FD02C00E94FF01570148C0C7010E946D
:10579000BA0BC8010E94D90B41C0F50111850085E3
:1057A00060E8C5010E947F1F882311F00E945D11EF
:1057B00060E4C5010E947F1F682F812F9927982FD1
:1057C0008827202F3327822B932B0E94A01EC501F0
:1057D0000E94941F823611F58FB7F89499272EB145
:1057E00034E023272EB919C0812F9927582F442739
:1057F000802F9927482B592B8FB7F8949927209100
:105800000A0230910B028FBF4217530719F04F5F06
:105810005F4F21F48FB7F89499278FBF9FB7F89403
:1058200080914313E82FFF27EE0FFF1FE851FD4F34
:10583000B182A0828F5F80934313833010F0109267
:10584000431380911013815080931013892F99274F
:105850008FBF5ECC0E94951E3BC20E94612238C25F
:1058600031E0D32EEE24FF2406E715E090915C137F
:105870008D2D892379F0D8016D917C9111971D921E
:105880001C928D2D8095982390935C1343E08E2D70
:105890000E9444210894E11CF11C0E5F1F4FB8E0E8
:1058A000EB16F10409F414C2DD0CE0CF0E94632171
:1058B0000FC28091E702882309F00AC2AA24BB2400
:1058C0002FEFE22EF22E9FEF892E992ECC24DD248D
:1058D00049C0022F112783E0000F111F8A95E1F7BD
:1058E00002531C4FF80122813381FFEF2F3F3F0706
:1058F000B1F18091BC0C9091BD0C2817390779F15A
:10590000D8018D919C910E948D0ABC01F8014481BF
:105910005581480F591F2081318180911C1390912E
:105920001D132817390779F48FB7F8949927248124
:10593000358130931F1320931E1327812093211349
:105940008FBF4A010CC0F8018781882341F462337C
:10595000710528F44E155F0510F458017A0108947A
:10596000C11CD11C2C2D80910403C81608F4B1CFA2
:10597000FFEFEF16FFEFFF0609F472C02FEF82165C
:105980002FEF920691F080912113882341F08091AE
:105990001E1390911F130A96E816F90630F0C701FE
:1059A0000F968815990508F05BC080913F13909180
:1059B0004013A0914113B09142130196A11DB11D56
:1059C00080933F1390934013A0934113B0934213DD
:1059D00080911C1390911D130E94750A8F3F81F0D6
:1059E000282F33278BE090E0289FF001299FF00DAE
:1059F000389FF00D1124EC57FA4F8581877F8583FE
:105A0000D5018D919C910E94A60AF501808191811A
:105A10000E94750A8F3F41F0EBE08E9FF001112448
:105A2000EC57FA4F128611862FB7F8943327D50119
:105A30008D919C9190931D1380931C13F50184818B
:105A4000958190931F1380931E1387818093211358
:105A50002FBFC4018E199F09459710F00E945D1158
:105A600080913D02882361F4FFEF8F16FFEF9F06C0
:105A700039F42FEFE2162FEFF20611F00E94FF012A
:105A800010923D0225C180913C02882309F020C17B
:105A9000E091BC04F091BD04108280911C139091A0
:105AA0001D13E091BC04F091BD048283892F9927D6
:105AB00081838091E702882329F080911E139091C1
:105AC0001F1320C080911C1390911D1300911E1371
:105AD00010911F134FEF8F3F940781F4E091BC04A6
